:020000040000FA
:200000003031303130303030303030303030303030303030303030303030303030303030DE
:200020000D0A30313031303030303030313030303031303030303030303030303030303005
:2000400030300D0A30313031303030303031303030303130303030303030303030303030E5
:20006000303030300D0A3031303130303030303131303030313130303030303030303030C3
:200080003030303030300D0A303130313030303031303030303130303030303030303030A5
:2000A00030303030303030300D0A3031303130303030313031303031303130303030303083
:2000C000303030303030303030300D0A303130313030303031313030303131303030303063
:2000E0003030303030303030303030300D0A30313031303030303131313030313131303041
:2001000030303030303030303030303030300D0A3031303130313030303031303030303123
:20012000303030303030303030303030303030310D0A303130313031303031303030303102
:200140003030303030303030303030303031303031310D0A303131303031303030303030E2
:2001600030303031303030303030303030303030303030300D0A30313031303130303030C4
:20018000313030303031303030303030303030303030303031300D0A3031303130303031A2
:2001A0003030303030303130303030303030303030303030303030310D0A30313030303085
:2001C00030303031303030303030303030303030303030303030303130300D0A3030313164
:2001E000303130303030303030303030303030303030303031303030303130300D0A303144
:200200003031303030313030303030303130303030303030303030303030303031300D0A23
:200220003031303030303030303130303030303030303030303030303030303030313030BB
:200240000D0A303031313031303030303030303030303030303030303031303130313130E0
:2002600030300D0A30313031303030313030303030303130303030303030303030303030C3
:20028000303130300D0A3031303030303030303130303030303030303030303030303030A4
:2002A0003030303130300D0A30303131303130303030303030303030303030303030313082
:2002C00030303131313130300D0A3130303030303030303030303031303030303031303060
:2002E000303030303030303030300D0A303030313131303030313030313030313030303140
:200300003030303030303030303030300D0A30313030303030303031303030303030303024
:2003200030303030303030303030313030300D0A3031313130313030303030303031303000
:20034000303030303030303030303030303030300D0A3031303031303030313031303031E1
:200360003031303030303030303030303030303030310D0A303131313130303030303030C0
:2003800030313030303030303030303030303030303030300D0A30313030303130303130A2
:2003A000303030303030303030303030303030303030313030300D0A303130313030303083
:2003C0003130303030313030303030303030303030303030303030300D0A30313030313062
:2003E00030303130303030313030303030303030303030303031303130300D0A3031303041
:20040000313130303130303030313030303030303030303030303030303030310D0A303020
:200420003131303030303030303030303030303030303030303030303131303130300D0A00
:20044000303130313030303130303030303031303030303131313131313030303030303092
:200460000D0A303130303031303030313030303030303030303030303030303030313131BF
:2004800030300D0A30313130303130303030303030303031303030303030303030303030A1
:2004A000303030300D0A303130303131303030303130303031303030303030303030303080
:2004C0003030303030310D0A30313030303030303031303030303030303030303030303062
:2004E00030303030313030300D0A303130303131303030303130303030313030303030303F
:20050000303030303030303030310D0A303130303031303030313030303030303030303020
:200520003030303030303030303130300D0A303130303130303030303130303030313030FF
:2005400030303030303030303030303030310D0A30313030313130303030303030303030E0
:20056000303030303030303030303030303030300D0A3031303130303031303030303030C1
:200580003130303030313131313131303030303030300D0A3030303030313030303030309C
:2005A00030303130303030313030303131313030303030300D0A303130303131303030317B
:2005C000303030303130303030303030303030303030303030310D0A30313131313130305D
:2005E0003030303030303130303030313030303030303030303030300D0A30313031303040
:2006000030313030303030303030303131303030303030303030303030300D0A3030303020
:20062000303130303030303030303030303030303030313130313030303030300D0A3031FE
:200640003030313130303030303030303030303030303030303030303030303030310D0AE0
:20066000303130303031303030303030303030303030303030303030303031313130303075
:200680000D0A3031303130303031303030303031313030303030303030303031313131309A
:2006A00030300D0A303030303031303030303030303131303030313130303030313130307C
:2006C000303030300D0A31303030303030303030303030313130303031313030303030305E
:2006E0003030303030300D0A3030303131313030303130303031313030303131313030303A
:2007000030303030303030300D0A303130303031303031313130303030303030303030301D
:20072000303030303030313030300D0A3031313130303030303030303030303030303030FE
:200740003030303030303030303030300D0A303130303131303030303030303030303030DF
:2007600030303030303030303030303030300D0A30313130303130303030303030303031BE
:20078000303030303030303030303030303030300D0A30313030313130303030313030309E
:2007A0003130303030303030303030303030303030310D0A3031303030303030303130307E
:2007C00030303030303030303030303030303030313030300D0A303130303131303030305E
:2007E000313030303031303030303030303030303030303030310D0A30313030303130303D
:200800003031303030303030303030303030303030303030303130300D0A3031303031301D
:2008200030303030313030303031303030303030303030303030303030310D0A30313030FD
:20084000313130303030303030303030303030303030303030303030303030300D0A3031DE
:200860003031303030313030303030303130303030313131313131303030303030300D0AB8
:20088000303030303031303030303030303031303030303130303031313130303030303052
:2008A0000D0A3031303031313030303130303030313030303030303030303030303030307C
:2008C00030310D0A3031313131313030303030303030313030303031303030303030303059
:2008E000303030300D0A30313031303030313030303030313130303030303030303030313B
:200900003131313030300D0A30303030303130303030303030313130303031313030303018
:2009200031313030303030300D0A30313030313030303131303030303131303030303030F8
:20094000303030303030303030310D0A3130303030303030303030303031313030303131DA
:200960003030303030303030303030300D0A313030303030303030303030303031313030BD
:2009800030313130303030303030303030300D0A3030303131313030303130303031313098
:2009A000303031313130303030303030303030300D0A303030313131303030313030303079
:2009C0003131303030303030303030303030303030300D0A3030313030303030313131305A
:2009E00030303030303031313130303030303030303030300D0A3031303030313030313139
:200A0000313030303030303030303030303030303030313030300D0A30313131303030301A
:200A20003030303030303030303030303030303030303030303030300D0A303130303131FC
:200A400030303030303030303030303030303030303030303030303030300D0A30313130DD
:200A6000303130303030303030303031303030303030303030303030303030300D0A3031BC
:200A80003030313130303030313030303130303030303030303030303030303030310D0A9A
:200AA000303130303030303030313030303030303030303030303030303030303130303033
:200AC0000D0A3031303031313030303031303030303130303030303030303030303030305A
:200AE00030310D0A303130303031303030313030303030303030303030303030303030303B
:200B0000303130300D0A303130303130303030303130303030313030303030303030303019
:200B20003030303030310D0A303130303131303030303030303030303030303030303030FA
:200B400030303030303030300D0A30313031303030313030303030303030303030303030DB
:200B6000303030313131313030300D0A3031303030313030303030303030303030303030B8
:200B80003030303030303030303130300D0A3031303031313030303030303030303030309A
:200BA00030303030303030303030303030300D0A303130313030303130303030303030307B
:200BC000303131303030303030303030303030300D0A30303030303130303030303030305B
:200BE0003030303030303030313130313030303030300D0A30313030313130303030303038
:200C000030303030303030303030303030303030303030310D0A303130303031303030301A
:200C2000303030303030303030303030303030313131313130300D0A3031303130303030F6
:200C40003031313030303131303030303030303030303030303030300D0A303130313030D7
:200C600030313030303030303130303030313131313131303030303030300D0A30303030B5
:200C8000303130303030303030303130303030313030303131313030303030300D0A303196
:200CA0003131313130303030303030303130303030313030303030303030303030300D0A77
:200CC00030313031303030313030303030313130303030303030303030313131313030300B
:200CE0000D0A30303030303130303030303030313130303031313030303031313030303036
:200D000030300D0A3031303031313030313130303031313030303030303030303030303015
:200D2000303030310D0A3130303030303030303030303031313030303131303030303030F6
:200D40003030303030300D0A303030313131303030313030303131303030313131303030D3
:200D600030303030303030300D0A30303130303030303031313030313131303030313130B4
:200D8000303030303030303030300D0A303130313030303130303030303031303030303197
:200DA0003131313131303030303030300D0A30303030303130303030303030303130303075
:200DC00030313030303131313030303030300D0A3031303031303030303130303030313054
:200DE000303030303030303030303030303030310D0A303131313131303030303030303036
:200E00003130303030313030303030303030303030300D0A30303031313130303031303015
:200E200030313130303031313130303030303030303030300D0A30303130303030303031F4
:200E4000313030313131303030313130303030303030303030300D0A3031303130303031D2
:200E60003030303030303130303030313131313131303030303030300D0A303030303031B3
:200E800030303030303030303130303030313030303131313030303030300D0A3031303095
:200EA000313030303031303030303130303030303030303030303030303031300D0A303176
:200EC0003131313130303030303030303130303030313030303030303030303030300D0A55
:200EE0003030303131313030303130303031313030303131313030303030303030303030E9
:200F00000D0A30303130303030303031313030313131303030313130303030303030303012
:200F200030300D0A30313031303030313030303030303130303030313131313131303030F0
:200F4000303030300D0A3030303030313030303030303030313030303031303030313131D4
:200F60003030303030300D0A303130303130303030313030303031303030303030303030B6
:200F800030303030303031310D0A3031313131313030303030303030313030303031303091
:200FA000303030303030303030300D0A303030313131303030313030303131303030313172
:200FC0003130303030303030303030300D0A30303130303030303031313030313131303053
:200FE00030313130303030303030303030300D0A3031303030313030303131303030303034
:20100000303030303030303030303030303130300D0A303131303130303030303030303015
:201020003030303030303030303030303030303030300D0A303130303131303030303030F6
:2010400030303030303030303030303030303030303030300D0A30313031303030303031D6
:20106000313030303131303030303030303030303030303030300D0A3031303130303031B3
:201080003030303030303130303030313131313131303030303030300D0A30303030303191
:2010A00030303030303030303130303030313030303131313030303030300D0A3031313171
:2010C000313130303030303030303130303030313030303030303030303030300D0A303154
:2010E0003031303030313030303030313130303030303030303030313131313030300D0A31
:201100003030303030313030303030303031313030303131303030303131303030303030C8
:201120000D0A303130303131303031313030303131303030303030303030303030303030F1
:2011400030310D0A31303030303030303030303030313130303031313030303030303030D2
:20116000303030300D0A3030303131313030303130303031313030303131313030303030AF
:201180003030303030300D0A30303130303030303031313030313131303030313130303090
:2011A00030303030303030300D0A3031303130303031303030303030313030303031313171
:2011C000313131303030303030300D0A303030303031303030303030303031303030303152
:2011E0003030303131313030303030300D0A30313030313030303031303030303130303031
:2012000030303030303030303030303030310D0A3031313131313030303030303030313010
:20122000303030313030303030303030303030300D0A3030303131313030303130303031F1
:201240003130303031313130303030303030303030300D0A303031303030303030313130D0
:2012600030313131303030313130303030303030303030300D0A30313030303130303031AF
:20128000313030303030303030303030303030303030303130300D0A303131303130303092
:2012A0003030303030303030303030303030303030303030303030300D0A30313030313174
:2012C00030303030303030303030303030303030303030303030303030300D0A3031303155
:2012E000303030313030303030303030303131303030303030303030303030300D0A303034
:201300003030303130303030303030303030303030303030313130313030303030300D0A12
:201320003031303031313030303030303030303030303030303030303030303030303031A9
:201340000D0A303130303031303030303030303030303030303030303030313030313031D1
:2013600030300D0A30313031303030313030303030313130303030303030303030313131AE
:20138000313030300D0A30303030303130303030303030313130303031313030303031318E
:2013A0003030303030300D0A30313031303030303031313030303131303030303030303070
:2013C00030303030303030300D0A3031303031303030303131303030313130303030303050
:2013E000303030303031303031310D0A30303131313130303131303030303131303030302B
:201400003030303030303030303130300D0A30313030313130303030303030303030303011
:2014200030303030303030303030303030300D0A30313031303030303031313030303131EF
:20144000303030303030303030303030303030300D0A3031303130303031303030303030D2
:201460003130303030313131313131303030303030300D0A303030303031303030303030AD
:2014800030303130303030313030303131313030303030300D0A303131313131303030308B
:2014A000303030303130303030313030303030303030303030300D0A303130313030303170
:2014C0003030303030313130303030303030303030313131313030300D0A3030303030314E
:2014E00030303030303030313130303031313030303031313030303030300D0A303130302E
:20150000313030303131303030313130303030303030303030303030303030310D0A31300D
:201520003030303030303030303030313130303031313030303030303030303030300D0AF0
:20154000303030313131303030313030303131303030313131303030303030303030303082
:201560000D0A303031303030303030313130303131313030303131303030303030303030AC
:2015800030300D0A303130313030303130303030303031303030303131313131313030308A
:2015A000303030300D0A30303030303130303030303030303130303030313030303131316E
:2015C0003030303030300D0A30313030313030303031303030303130303030303030303050
:2015E00030303030303030310D0A303131313131303030303030303031303030303130302C
:20160000303030303030303030300D0A30303031313130303031303030313130303031310B
:201620003130303030303030303030300D0A303031303030303030313130303131313030EC
:2016400030313130303030303030303030300D0A30313031303030313030303030303130CD
:20166000303030313131313131303030303030300D0A3030303030313030303030303030AC
:201680003130303030313030303131313030303030300D0A3031303031303030303130308B
:2016A00030303130303030303030303030303030303031300D0A303131313131303030306C
:2016C000303030303130303030313030303030303030303030300D0A30303031313130304E
:2016E0003031303030313130303031313130303030303030303030300D0A3030313030302C
:2017000030303031313030313131303030313130303030303030303030300D0A3031303109
:20172000303030313030303030303130303030313131313131303030303030300D0A3030EA
:201740003030303130303030303030303130303030313030303131313030303030300D0ACC
:20176000303130303130303030313030303031303030303030303030303030303030313163
:201780000D0A3031313131313030303030303030313030303031303030303030303030308B
:2017A00030300D0A3030303131313030303130303031313030303131313030303030303069
:2017C000303030300D0A30303130303030303031313030313131303030313130303030304A
:2017E0003030303030300D0A3031303030313030303131303030303030303030303030302E
:2018000030303030303130300D0A303131303131303030303030303030303030303030300C
:20182000303030303030303030300D0A3031303031313030303030303030303030303030EE
:201840003030303030303030303030300D0A303130313030303130303030303131303030CC
:2018600030303030303030313131313030300D0A30303030303130303030303030313130AA
:20188000303031313030303031313030303030300D0A303130313030303030313130303089
:2018A0003131303030303030303030303030303030300D0A3031303031303030303131306B
:2018C00030303131303030303030303030303031303031300D0A3030313131313030313147
:2018E000303030303131303030303030303030303030303130300D0A30313030313130302B
:201900003030303030303030303030303030303030303030303030300D0A3031303130300E
:2019200030303031313030303131303030303030303030303030303030300D0A30313031EA
:20194000303030313030303030303130303030313131313131303030303030300D0A3030C8
:201960003030303130303030303030303130303030313030303131313030303030300D0AAA
:20198000303131313131303030303030303031303030303130303030303030303030303040
:2019A0000D0A30313031303030313030303030313130303030303030303030313131313067
:2019C00030300D0A3030303030313030303030303031313030303131303030303131303049
:2019E000303030300D0A30313030313030303131303030313130303030303030303030302A
:201A00003030303031300D0A31303030303030303030303030313130303031313030303009
:201A200030303030303030300D0A30303031313130303031303030313130303031313130E6
:201A4000303030303030303030300D0A3030313030303030303131303031313130303031C8
:201A60003130303030303030303030300D0A303130313030303130303030303031303030AA
:201A800030313131313131303030303030300D0A3030303030313030303030303030313087
:201AA000303030313030303131313030303030300D0A303130303130303030313030303068
:201AC0003130303030303030303030303030303030310D0A30313131313130303030303048
:201AE00030303130303030313030303030303030303030300D0A3030303131313030303129
:201B0000303030313130303031313130303030303030303030300D0A303031303030303008
:201B20003031313030313131303030313130303030303030303030300D0A303130303031E5
:201B400030303031313030303030303030303030303030303030303130300D0A30313130C9
:201B6000313130303030303030303030303030303030303030303030303030300D0A3031AB
:201B80003030313130303030303030303030303030303030303030303030303030300D0A8C
:00000001FF
